{
  "_format": "hh-sol-artifact-1",
  "contractName": "CrowdFunding",
  "sourceName": "contracts/CrowdFunding.sol",
  "abi": [
    {
      "inputs": [
        {
          "internalType": "uint256",
          "name": "",
          "type": "uint256"
        }
      ],
      "name": "campaigns",
      "outputs": [
        {
          "internalType": "address",
          "name": "owner",
          "type": "address"
        },
        {
          "internalType": "string",
          "name": "title",
          "type": "string"
        },
        {
          "internalType": "string",
          "name": "description",
          "type": "string"
        },
        {
          "internalType": "uint256",
          "name": "target",
          "type": "uint256"
        },
        {
          "internalType": "uint256",
          "name": "deadline",
          "type": "uint256"
        },
        {
          "internalType": "uint256",
          "name": "amountCollected",
          "type": "uint256"
        },
        {
          "internalType": "string",
          "name": "image",
          "type": "string"
        }
      ],
      "stateMutability": "view",
      "type": "function"
    },
    {
      "inputs": [
        {
          "internalType": "address",
          "name": "_owner",
          "type": "address"
        },
        {
          "internalType": "string",
          "name": "_title",
          "type": "string"
        },
        {
          "internalType": "string",
          "name": "_description",
          "type": "string"
        },
        {
          "internalType": "uint256",
          "name": "_target",
          "type": "uint256"
        },
        {
          "internalType": "uint256",
          "name": "_deadline",
          "type": "uint256"
        },
        {
          "internalType": "string",
          "name": "_image",
          "type": "string"
        }
      ],
      "name": "createCampaign",
      "outputs": [
        {
          "internalType": "uint256",
          "name": "",
          "type": "uint256"
        }
      ],
      "stateMutability": "nonpayable",
      "type": "function"
    },
    {
      "inputs": [
        {
          "internalType": "uint256",
          "name": "_id",
          "type": "uint256"
        }
      ],
      "name": "donateToCampaign",
      "outputs": [],
      "stateMutability": "payable",
      "type": "function"
    },
    {
      "inputs": [],
      "name": "getCampaigns",
      "outputs": [
        {
          "components": [
            {
              "internalType": "address",
              "name": "owner",
              "type": "address"
            },
            {
              "internalType": "string",
              "name": "title",
              "type": "string"
            },
            {
              "internalType": "string",
              "name": "description",
              "type": "string"
            },
            {
              "internalType": "uint256",
              "name": "target",
              "type": "uint256"
            },
            {
              "internalType": "uint256",
              "name": "deadline",
              "type": "uint256"
            },
            {
              "internalType": "uint256",
              "name": "amountCollected",
              "type": "uint256"
            },
            {
              "internalType": "string",
              "name": "image",
              "type": "string"
            },
            {
              "internalType": "address[]",
              "name": "donators",
              "type": "address[]"
            },
            {
              "internalType": "uint256[]",
              "name": "donations",
              "type": "uint256[]"
            }
          ],
          "internalType": "struct CrowdFunding.Campaign[]",
          "name": "",
          "type": "tuple[]"
        }
      ],
      "stateMutability": "view",
      "type": "function"
    },
    {
      "inputs": [
        {
          "internalType": "uint256",
          "name": "_id",
          "type": "uint256"
        }
      ],
      "name": "getDonators",
      "outputs": [
        {
          "internalType": "address[]",
          "name": "",
          "type": "address[]"
        },
        {
          "internalType": "uint256[]",
          "name": "",
          "type": "uint256[]"
        }
      ],
      "stateMutability": "view",
      "type": "function"
    },
    {
      "inputs": [],
      "name": "numberOfCampaigns",
      "outputs": [
        {
          "internalType": "uint256",
          "name": "",
          "type": "uint256"
        }
      ],
      "stateMutability": "view",
      "type": "function"
    }
  ],
  "bytecode": "0x6080604052600060015534801561001557600080fd5b50611908806100256000396000f3fe6080604052600436106100555760003560e01c806307ca140d1461005a5780630fa91fa914610085578063141961bc146100c357806342a4fda8146101065780639943e3a114610122578063a6b036331461015f575b600080fd5b34801561006657600080fd5b5061006f61018a565b60405161007c9190610b75565b60405180910390f35b34801561009157600080fd5b506100ac60048036038101906100a79190610bd0565b610190565b6040516100ba929190610dab565b60405180910390f35b3480156100cf57600080fd5b506100ea60048036038101906100e59190610bd0565b6102a0565b6040516100fd9796959493929190610e81565b60405180910390f35b610120600480360381019061011b9190610bd0565b61049a565b005b34801561012e57600080fd5b5061014960048036038101906101449190611066565b6105fd565b6040516101569190610b75565b60405180910390f35b34801561016b57600080fd5b50610174610724565b6040516101819190611412565b60405180910390f35b60015481565b6060806000808481526020019081526020016000206007016000808581526020019081526020016000206008018180548060200260200160405190810160405280929190818152602001828054801561023e57602002820191906000526020600020905b8160009054906101000a900473ffffffffffffffffffffffffffffffffffffffff1673ffffffffffffffffffffffffffffffffffffffff16815260200190600101908083116101f4575b505050505091508080548060200260200160405190810160405280929190818152602001828054801561029057602002820191906000526020600020905b81548152602001906001019080831161027c575b5050505050905091509150915091565b60006020528060005260406000206000915090508060000160009054906101000a900473ffffffffffffffffffffffffffffffffffffffff16908060010180546102e990611463565b80601f016020809104026020016040519081016040528092919081815260200182805461031590611463565b80156103625780601f1061033757610100808354040283529160200191610362565b820191906000526020600020905b81548152906001019060200180831161034557829003601f168201915b50505050509080600201805461037790611463565b80601f01602080910402602001604051908101604052809291908181526020018280546103a390611463565b80156103f05780601f106103c5576101008083540402835291602001916103f0565b820191906000526020600020905b8154815290600101906020018083116103d357829003601f168201915b50505050509080600301549080600401549080600501549080600601805461041790611463565b80601f016020809104026020016040519081016040528092919081815260200182805461044390611463565b80156104905780601f1061046557610100808354040283529160200191610490565b820191906000526020600020905b81548152906001019060200180831161047357829003601f168201915b5050505050905087565b60003490506000806000848152602001908152602001600020905080600701339080600181540180825580915050600190039060005260206000200160009091909190916101000a81548173ffffffffffffffffffffffffffffffffffffffff021916908373ffffffffffffffffffffffffffffffffffffffff1602179055508060080182908060018154018082558091505060019003906000526020600020016000909190919091505560008160000160009054906101000a900473ffffffffffffffffffffffffffffffffffffffff1673ffffffffffffffffffffffffffffffffffffffff168360405161058f906114c5565b60006040518083038185875af1925050503d80600081146105cc576040519150601f19603f3d011682016040523d82523d6000602084013e6105d1565b606091505b5050905080156105f757828260050160008282546105ef9190611509565b925050819055505b50505050565b600080600080600154815260200190815260200160002090504281600401541061065c576040517f08c379a000000000000000000000000000000000000000000000000000000000815260040161065390611589565b60405180910390fd5b878160000160006101000a81548173ffffffffffffffffffffffffffffffffffffffff021916908373ffffffffffffffffffffffffffffffffffffffff160217905550868160010190816106b09190611755565b50858160020190816106c29190611755565b50848160030181905550838160040181905550828160060190816106e69190611755565b50600081600501819055506001600081548092919061070490611827565b919050555060018054610717919061186f565b9150509695505050505050565b6060600060015467ffffffffffffffff81111561074457610743610f3b565b5b60405190808252806020026020018201604052801561077d57816020015b61076a610afa565b8152602001906001900390816107625790505b50905060005b600154811015610af2576000806000838152602001908152602001600020905080604051806101200160405290816000820160009054906101000a900473ffffffffffffffffffffffffffffffffffffffff1673ffffffffffffffffffffffffffffffffffffffff1673ffffffffffffffffffffffffffffffffffffffff16815260200160018201805461081690611463565b80601f016020809104026020016040519081016040528092919081815260200182805461084290611463565b801561088f5780601f106108645761010080835404028352916020019161088f565b820191906000526020600020905b81548152906001019060200180831161087257829003601f168201915b505050505081526020016002820180546108a890611463565b80601f01602080910402602001604051908101604052809291908181526020018280546108d490611463565b80156109215780601f106108f657610100808354040283529160200191610921565b820191906000526020600020905b81548152906001019060200180831161090457829003601f168201915b5050505050815260200160038201548152602001600482015481526020016005820154815260200160068201805461095890611463565b80601f016020809104026020016040519081016040528092919081815260200182805461098490611463565b80156109d15780601f106109a6576101008083540402835291602001916109d1565b820191906000526020600020905b8154815290600101906020018083116109b457829003601f168201915b5050505050815260200160078201805480602002602001604051908101604052809291908181526020018280548015610a5f57602002820191906000526020600020905b8160009054906101000a900473ffffffffffffffffffffffffffffffffffffffff1673ffffffffffffffffffffffffffffffffffffffff1681526020019060010190808311610a15575b5050505050815260200160088201805480602002602001604051908101604052809291908181526020018280548015610ab757602002820191906000526020600020905b815481526020019060010190808311610aa3575b505050505081525050838381518110610ad357610ad26118a3565b5b6020026020010181905250508080610aea90611827565b915050610783565b508091505090565b604051806101200160405280600073ffffffffffffffffffffffffffffffffffffffff16815260200160608152602001606081526020016000815260200160008152602001600081526020016060815260200160608152602001606081525090565b6000819050919050565b610b6f81610b5c565b82525050565b6000602082019050610b8a6000830184610b66565b92915050565b6000604051905090565b600080fd5b600080fd5b610bad81610b5c565b8114610bb857600080fd5b50565b600081359050610bca81610ba4565b92915050565b600060208284031215610be657610be5610b9a565b5b6000610bf484828501610bbb565b91505092915050565b600081519050919050565b600082825260208201905092915050565b6000819050602082019050919050565b600073ffffffffffffffffffffffffffffffffffffffff82169050919050565b6000610c5482610c29565b9050919050565b610c6481610c49565b82525050565b6000610c768383610c5b565b60208301905092915050565b6000602082019050919050565b6000610c9a82610bfd565b610ca48185610c08565b9350610caf83610c19565b8060005b83811015610ce0578151610cc78882610c6a565b9750610cd283610c82565b925050600181019050610cb3565b5085935050505092915050565b600081519050919050565b600082825260208201905092915050565b6000819050602082019050919050565b610d2281610b5c565b82525050565b6000610d348383610d19565b60208301905092915050565b6000602082019050919050565b6000610d5882610ced565b610d628185610cf8565b9350610d6d83610d09565b8060005b83811015610d9e578151610d858882610d28565b9750610d9083610d40565b925050600181019050610d71565b5085935050505092915050565b60006040820190508181036000830152610dc58185610c8f565b90508181036020830152610dd98184610d4d565b90509392505050565b610deb81610c49565b82525050565b600081519050919050565b600082825260208201905092915050565b60005b83811015610e2b578082015181840152602081019050610e10565b60008484015250505050565b6000601f19601f8301169050919050565b6000610e5382610df1565b610e5d8185610dfc565b9350610e6d818560208601610e0d565b610e7681610e37565b840191505092915050565b600060e082019050610e96600083018a610de2565b8181036020830152610ea88189610e48565b90508181036040830152610ebc8188610e48565b9050610ecb6060830187610b66565b610ed86080830186610b66565b610ee560a0830185610b66565b81810360c0830152610ef78184610e48565b905098975050505050505050565b610f0e81610c49565b8114610f1957600080fd5b50565b600081359050610f2b81610f05565b92915050565b600080fd5b600080fd5b7f4e487b7100000000000000000000000000000000000000000000000000000000600052604160045260246000fd5b610f7382610e37565b810181811067ffffffffffffffff82111715610f9257610f91610f3b565b5b80604052505050565b6000610fa5610b90565b9050610fb18282610f6a565b919050565b600067ffffffffffffffff821115610fd157610fd0610f3b565b5b610fda82610e37565b9050602081019050919050565b82818337600083830152505050565b600061100961100484610fb6565b610f9b565b90508281526020810184848401111561102557611024610f36565b5b611030848285610fe7565b509392505050565b600082601f83011261104d5761104c610f31565b5b813561105d848260208601610ff6565b91505092915050565b60008060008060008060c0878903121561108357611082610b9a565b5b600061109189828a01610f1c565b965050602087013567ffffffffffffffff8111156110b2576110b1610b9f565b5b6110be89828a01611038565b955050604087013567ffffffffffffffff8111156110df576110de610b9f565b5b6110eb89828a01611038565b94505060606110fc89828a01610bbb565b935050608061110d89828a01610bbb565b92505060a087013567ffffffffffffffff81111561112e5761112d610b9f565b5b61113a89828a01611038565b9150509295509295509295565b600081519050919050565b600082825260208201905092915050565b6000819050602082019050919050565b600082825260208201905092915050565b600061118f82610df1565b6111998185611173565b93506111a9818560208601610e0d565b6111b281610e37565b840191505092915050565b600082825260208201905092915050565b60006111d982610bfd565b6111e381856111bd565b93506111ee83610c19565b8060005b8381101561121f5781516112068882610c6a565b975061121183610c82565b9250506001810190506111f2565b5085935050505092915050565b600082825260208201905092915050565b600061124882610ced565b611252818561122c565b935061125d83610d09565b8060005b8381101561128e5781516112758882610d28565b975061128083610d40565b925050600181019050611261565b5085935050505092915050565b6000610120830160008301516112b46000860182610c5b565b50602083015184820360208601526112cc8282611184565b915050604083015184820360408601526112e68282611184565b91505060608301516112fb6060860182610d19565b50608083015161130e6080860182610d19565b5060a083015161132160a0860182610d19565b5060c083015184820360c08601526113398282611184565b91505060e083015184820360e086015261135382826111ce565b91505061010083015184820361010086015261136f828261123d565b9150508091505092915050565b6000611388838361129b565b905092915050565b6000602082019050919050565b60006113a882611147565b6113b28185611152565b9350836020820285016113c485611163565b8060005b8581101561140057848403895281516113e1858261137c565b94506113ec83611390565b925060208a019950506001810190506113c8565b50829750879550505050505092915050565b6000602082019050818103600083015261142c818461139d565b905092915050565b7f4e487b7100000000000000000000000000000000000000000000000000000000600052602260045260246000fd5b6000600282049050600182168061147b57607f821691505b60208210810361148e5761148d611434565b5b50919050565b600081905092915050565b50565b60006114af600083611494565b91506114ba8261149f565b600082019050919050565b60006114d0826114a2565b9150819050919050565b7f4e487b7100000000000000000000000000000000000000000000000000000000600052601160045260246000fd5b600061151482610b5c565b915061151f83610b5c565b9250828201905080821115611537576115366114da565b5b92915050565b7f446561646c696e65206d75737420626520696e20746865206675747572650000600082015250565b6000611573601e83610dfc565b915061157e8261153d565b602082019050919050565b600060208201905081810360008301526115a281611566565b9050919050565b60008190508160005260206000209050919050565b60006020601f8301049050919050565b600082821b905092915050565b60006008830261160b7fffffffffffffffffffffffffffffffffffffffffffffffffffffffffffffffff826115ce565b61161586836115ce565b95508019841693508086168417925050509392505050565b6000819050919050565b600061165261164d61164884610b5c565b61162d565b610b5c565b9050919050565b6000819050919050565b61166c83611637565b61168061167882611659565b8484546115db565b825550505050565b600090565b611695611688565b6116a0818484611663565b505050565b5b818110156116c4576116b960008261168d565b6001810190506116a6565b5050565b601f821115611709576116da816115a9565b6116e3846115be565b810160208510156116f2578190505b6117066116fe856115be565b8301826116a5565b50505b505050565b600082821c905092915050565b600061172c6000198460080261170e565b1980831691505092915050565b6000611745838361171b565b9150826002028217905092915050565b61175e82610df1565b67ffffffffffffffff81111561177757611776610f3b565b5b6117818254611463565b61178c8282856116c8565b600060209050601f8311600181146117bf57600084156117ad578287015190505b6117b78582611739565b86555061181f565b601f1984166117cd866115a9565b60005b828110156117f5578489015182556001820191506020850194506020810190506117d0565b86831015611812578489015161180e601f89168261171b565b8355505b6001600288020188555050505b505050505050565b600061183282610b5c565b91507fffffffffffffffffffffffffffffffffffffffffffffffffffffffffffffffff8203611864576118636114da565b5b600182019050919050565b600061187a82610b5c565b915061188583610b5c565b925082820390508181111561189d5761189c6114da565b5b92915050565b7f4e487b7100000000000000000000000000000000000000000000000000000000600052603260045260246000fdfea26469706673582212207a2dcd533e70184622ced7af14f423e7c5042042dc469a955faf73bb6726510164736f6c63430008130033",
  "linkReferences": {},
  "deployedLinkReferences": {}
}